:020000040800F2
:10000000000002201D2E00084D0900084F090008BD
:1000100051090008530900085509000800000000B4
:10002000000000000000000000000000F1210008B6
:10003000570900080000000091220008F52200087E
:100040006D2E00086D2E00086D2E00086D2E000824
:100050006D2E00086D2E00086D2E00086D2E000814
:100060006D2E00086D2E00086D2E00086D2E000804
:100070006D2E00086D2E00086D2E00086D2E0008F4
:100080006D2E00086D2E00086D2E00080000000087
:100090000000000000000000000000006D2E0008BD
:1000A0006D2E00086D2E00086D2E00086D2E0008C4
:1000B000590900086D2E00086D2E00086D2E0008ED
:1000C0006D2E00086D2E00086D2E00086D2E0008A4
:1000D0006D2E00086D2E00086D2E00080000000037
:1000E0006D2E00086D2E00086D2E00080000000027
:1000F0000000000000000000000000006D2E00085D
:10010000000000006D2E00086D2E00086D2E000806
:1001100000000000000000000000000000000000DF
:100120006D2E00086D2E00086D2E00086D2E000843
:100130006D2E00080000000000000000000000001C
:100140000000000000000000000000006D2E00080C
:100150006D2E00086D2E00086D2E00086D2E000813
:100160006D2E00086D2E0008000000000000000049
:10017000000000000000000000000000000000007F
:10018000000000006D2E00080000000000000000CC
:080190006D2E00086D2E000821
:1001A00010B5054C237833B9044B13B10448AFF3B1
:1001B00000800123237010BD4404002000000000D3
:1001C0009438000808B5034B1BB103490348AFF34B
:1001D000008008BD0000000048040020943800089A
:1001E00053B94AB9002908BF00281CBF4FF0FF319E
:1001F0004FF0FF3000F074B9ADF1080C6DE904CE9A
:1002000000F006F8DDF804E0DDE9022304B07047F1
:100210002DE9F047089D04468E46002B4DD18A42B9
:10022000944669D9B2FA82F252B101FA02F3C2F1EC
:10023000200120FA01F10CFA02FC41EA030E94407D
:100240004FEA1C48210CBEFBF8F61FFA8CF708FB9E
:1002500016E341EA034306FB07F199420AD91CEB76
:10026000030306F1FF3080F01F81994240F21C81A8
:10027000023E63445B1AA4B2B3FBF8F008FB1033F0
:1002800044EA034400FB07F7A7420AD91CEB040425
:1002900000F1FF3380F00A81A74240F207816444F5
:1002A000023840EA0640E41B00261DB1D44000237A
:1002B000C5E900433146BDE8F0878B4209D9002DDE
:1002C00000F0EF800026C5E9000130463146BDE868
:1002D000F087B3FA83F6002E4AD18B4202D38242D2
:1002E00000F2F980841A61EB030301209E46002D81
:1002F000E0D0C5E9004EDDE702B9FFDEB2FA82F2D6
:10030000002A40F09280A1EB0C014FEA1C471FFA33
:100310008CFE0126200CB1FBF7F307FB131140EA1A
:1003200001410EFB03F0884208D91CEB010103F1E7
:10033000FF3802D2884200F2CB804346091AA4B2A9
:10034000B1FBF7F007FB101144EA01440EFB00FE7D
:10035000A64508D91CEB040400F1FF3102D2A645E2
:1003600000F2BB800846A4EB0E0440EA03409CE781
:10037000C6F12007B34022FA07FC4CEA030C20FA2E
:1003800007F401FA06F31C43F9404FEA1C4900FA4E
:1003900006F3B1FBF9F8200C1FFA8CFE09FB1811CB
:1003A00040EA014108FB0EF0884202FA06F20BD93E
:1003B0001CEB010108F1FF3A80F08880884240F28E
:1003C0008580A8F102086144091AA4B2B1FBF9F0D2
:1003D00009FB101144EA014100FB0EFE8E4508D9CD
:1003E0001CEB010100F1FF346CD28E456AD9023852
:1003F000614440EA0840A0FB0294A1EB0E01A14237
:10040000C846A64656D353D05DB1B3EB080261EBA4
:100410000E0101FA07F722FA06F3F1401F43C5E97E
:10042000007100263146BDE8F087C2F12003D840B4
:100430000CFA02FC21FA03F3914001434FEA1C47F6
:100440001FFA8CFEB3FBF7F007FB10360B0C43EAE8
:10045000064300FB0EF69E4204FA02F408D91CEB98
:10046000030300F1FF382FD29E422DD90238634496
:100470009B1B89B2B3FBF7F607FB163341EA034136
:1004800006FB0EF38B4208D91CEB010106F1FF3885
:1004900016D28B4214D9023E6144C91A46EA00467C
:1004A00038E72E46284605E70646E3E61846F8E60E
:1004B0004B45A9D2B9EB020864EB0C0E0138A3E757
:1004C0004646EAE7204694E74046D1E7D0467BE738
:1004D000023B614432E7304609E76444023842E7B0
:1004E000704700BF08B5012001F0DEFDFBE700000A
:1004F00070B505460C460A4E00224FF400513046B6
:1005000000F0D4FC681E00F085FB01224FF400517E
:10051000304600F0CBFC601E00F07CFB70BD00BFDD
:100520000008024010B5002408E04FF4FA713220B0
:10053000FFF7DEFF0121084600F0BEFC002CF4D0DE
:100540004FF4FA710846FFF7D3FFF3E7034B03605C
:10055000034B0B6080231360704700BF68060020C8
:100560006804002010B58EB0124C0DF11C0CA6468C
:10057000BEE80F00ACE80F009EE807008CE807001B
:10058000002107A801F05BFD0B4B1860EE4604F15B
:100590001C0CBCE80F00AEE80F009CE807008EE8DA
:1005A00007000021684601F04AFD044B18600EB0B8
:1005B00010BD00BFAC3800086404002060040020B7
:1005C000F0B589B00024039404940594069407942C
:1005D0000094204B1A6B42F004021A631A6B02F06B
:1005E00004020092009A01941A6B42F080021A638E
:1005F0001A6B02F080020192019A02941A6B42F087
:1006000001021A631B6B03F001030293029B124F5A
:1006100022464FF40051384600F048FC0F4D224668
:100620001021284600F042FC4FF4005303930126AA
:1006300004960594069403A9384600F057FB10234E
:10064000039304960594069403A9284600F04EFBF4
:1006500009B0F0BD0038024000080240000002402E
:1006600070B505460C460A4E00224FF40051304644
:1006700000F01CFC681E00F0CDFA01224FF400517E
:10068000304600F013FC601E00F0C4FA70BD00BFDD
:100690000008024008B50368B3F1804F00D008BDE0
:1006A00000F0A6FAFBE772B6FEE7000000B595B0D1
:1006B0003022002108A802F005FC002303930493D4
:1006C00005930693079301931F4A116C41F08051E3
:1006D0001164126C02F080520192019A02931B4B3A
:1006E0001A6842F440421A601B6803F440430293C4
:1006F000029B012308934FF48033099302230E9346
:100700004FF480020F920C221092602211921293E9
:100710000423139308A800F0DFFB88B90F23039389
:1007200002230493002305934FF48052069207930B
:10073000032103A800F01EFE20B915B05DF804FBEC
:10074000FFF7B1FFFFF7AFFF003802400070004035
:1007500010B500F033FAFFF7A9FFFFF731FF00F003
:100760003FF800F0EFF91C4B1B68A3F56F43133BF8
:10077000042B08D932210846FFF772FF01210846F1
:1007800000F09AFBF6E7FFF7EDFE01F053FC502175
:100790004FF49670FFF764FF50214FF49670FFF707
:1007A0005FFF00224FF400510C4800F07FFB00F087
:1007B000D3F9044608E04FF4FA710846FFF750FFFA
:1007C0000121084600F078FB002CF4D14FF4FA71B7
:1007D0003220FFF745FFF3E75C07002000080240E6
:1007E00008B50D480D4B03604FF48273436000233E
:1007F0008360C360036143614FF400728261C3612F
:100800000362436283620A23C36200F07BFF00B984
:1008100008BDFFF748FFFBE7BC06002000300140A1
:1008200000B589B0002303930493059306930793BF
:100830000268154B9A4202D009B05DF804FB002112
:10084000019103F584335A6C42F480525A645A6C15
:1008500002F480520192019A02911A6B42F0010255
:100860001A631B6B03F001030293029BE0230393C3
:1008700002230493032306930523079303A9034844
:1008800000F034FAD8E700BF003001400000024019
:1008900000B583B0002200920D4B596C41F48041A9
:1008A0005964596C01F48041009100990192196CCE
:1008B00041F0805119641B6C03F080530193019B3C
:1008C0000F216FF0010000F0CBF903B05DF804FBDD
:1008D0000038024010B588B0014600221C2000F00C
:1008E000BFF91C2000F0F4F900240194144B1A6C99
:1008F00042F001021A641B6C03F001030193019B97
:1009000002A903A800F0FCFD00F0EAFD43000D4839
:10091000A0FB03239B0C013B0B484FF0804202607D
:1009200040F2E732C26043600461846001F04EFB34
:1009300010B1012008B010BD034801F0FBF9F9E740
:100940000038024083DE1B4314070020FEE7FEE769
:10095000FEE7FEE7FEE7704708B5024801F02AFA15
:1009600008BD00BF14070020034AD2F8883043F4C2
:100970007003C2F88830704700ED00E010B582B017
:1009800049F66613ADF80430094C002210212046C8
:1009900000F08CFA4FF47A73022201A9054800F0A6
:1009A00010FF01221021204600F080FA02B010BD95
:1009B00000000240BC06002030B583B005238DF84E
:1009C0000430124C00221021204600F06FFA104D26
:1009D0004FF47A73012201A9284600F0F2FE4FF489
:1009E0007A7301220DF10301284601F0E2F8012299
:1009F0001021204600F05AFA9DF8030010F0010083
:100A000001D103B030BD0220FBE700BF000002406F
:100A1000BC06002030B583B006238DF8043000F00A
:100A2000F3F80446124D00221021284600F03EFA49
:100A30004FF47A73012201A90E4800F0C2FE012290
:100A40001021284600F032FA02E0012000F0E2F81E
:100A5000FFF7B2FF022807D100F0D6F8001BB0F56F
:100A60007A7FF2D9032000E0002003B030BD00BF40
:100A700000000240BC06002070B582B004469023FE
:100A80000093114D00221021284600F00FFA0F4E5E
:100A90004FF47A7304226946304600F092FE4FF418
:100AA0007A73022201A9304601F083F89DF80420F0
:100AB0009DF8053003EB02232380012210212846F4
:100AC00000F0F4F902B070BD00000240BC06002046
:100AD00010B582B004464FF4807383614FF48053A5
:100AE00043614FF48033C3600DF10600FFF7C4FF8C
:100AF000BDF8062002F587530D339BB2042B02D9B3
:100B0000012002B010BDA2F56F42133A07EE902A01
:100B1000F8EEE70AB0EE000A02F096FABCEEC00A60
:100B200010EE103A1B05BDF8062022606360626972
:100B3000B3FBF2F22261E268B3FBF2F3A3600020A0
:100B4000DFE7000008B5FFF719FF0248FFF7C0FF15
:100B500008BD00BF5C07002030B583B000F054F83A
:100B60000446C7238DF80430FFF754FF104D0022D0
:100B70001021284600F09AF94FF47A73012201A956
:100B80000C4800F01EFE01221021284600F08EF9CC
:100B9000FFF712FF022807D100F036F8001B064BC2
:100BA0009842F5D9032000E0002003B030BD00BF1B
:100BB00000000240BC06002090D0030008B50B4B9B
:100BC0001A6842F400721A601A6842F480621A606D
:100BD0001A6842F480721A60032000F02FF80F2088
:100BE000FFF778FEFFF754FE002008BD003C0240EE
:100BF000034A1168034B1B780B441360704700BF16
:100C00007807002004000020014B1868704700BFDF
:100C10007807002038B50446FFF7F6FF0546B4F123
:100C2000FF3F02D0044B1B781C44FFF7EDFF401B35
:100C3000A042FAD338BD00BF04000020074AD368A1
:100C400023F4E0631B041B0C000200F4E060034388
:100C500043F0BF6343F40033D360704700ED00E01E
:100C600000B5194BDB68C3F30223C3F1070CBCF1D9
:100C7000040F28BF4FF0040C03F1040EBEF1060F61
:100C800018D9033B4FF0FF3E0EFA0CFC21EA0C0191
:100C900099400EFA03F322EA0303194300280BDB01
:100CA0000901C9B200F1604000F5614080F800130D
:100CB0005DF804FB0023E5E700F00F000901C9B26D
:100CC000024B1954F4E700BF00ED00E014ED00E022
:100CD000002807DB00F01F02400901239340024A6D
:100CE00042F82030704700BF00E100E000230F2BE6
:100CF00000F2D28070B582B060E085685E000324A7
:100D0000B44025EA0405CC68B4402C4384604568AF
:100D100025EA02054C68C4F300129A402A43426057
:100D20005AE0DC08083450F8246003F0070295000C
:100D30000F22AA4026EA020E0A69AA4042EA0E02DF
:100D400040F824205CE0042200E0002202FA0EF2C7
:100D50002A430234514D45F82420514A94686FEAE1
:100D60000C0224EA0C054E6816F4801F01D04CEAF0
:100D700004054B4CA560E46802EA04054E6816F4CD
:100D8000001F01D04CEA0405454CE560646802EAA6
:100D900004054E6816F4003F01D04CEA0405404CAF
:100DA0006560246822404D6815F4803F01D04CEA0C
:100DB00004023B4C226001330F2B6BD801229A4076
:100DC0000C6804EA020C32EA0404F4D14C6804F022
:100DD0000304013C012C90D94A6802F00302032A63
:100DE00009D0C4685D000322AA4024EA02048A688C
:100DF000AA402243C2604A6802F00302022A90D04D
:100E000004684FEA430E032202FA0EF224EA0204B7
:100E10004A6802F0030202FA0EF2224302604A68B4
:100E200012F4403FC7D0002201921E4A546C44F491
:100E300080445464526C02F480420192019A9C08EE
:100E4000A51C164A52F8255003F003024FEA820E01
:100E50000F2202FA0EF225EA0205134A90423FF4ED
:100E600074AF02F5806290420ED002F5806290422B
:100E70000CD002F5806290420AD002F58062904266
:100E80003FF461AF072261E701225FE702225DE7DD
:100E900003225BE702B070BD704700BF003801401D
:100EA000003C014000380240000002400AB181616C
:100EB0007047090481617047064A136923F00403EF
:100EC0001361012903D040BF20BF20BF704730BF4E
:100ED000704700BF00ED00E0002800F0E08170B531
:100EE00082B00446036813F0010F3BD09F4B9B6810
:100EF00003F00C03042B2CD09C4B9B6803F00C03D9
:100F0000082B21D06368B3F5803F4FD0B3F5A02FF5
:100F100052D0964B1A6822F480321A601A6822F472
:100F200080221A606368002B50D0FFF76DFE0546E3
:100F30008E4B1B6813F4003F14D1FFF765FE401B76
:100F40006428F5D90320B1E1884B5B6813F4800F66
:100F5000D8D0864B1B6813F4003F03D06368002B86
:100F600000F09F81236813F0020F54D07F4B9B68E1
:100F700013F00C0F3ED07D4B9B6803F00C03082B45
:100F800033D0E368002B68D0794B01221A60FFF759
:100F90003BFE0546754B1B6813F0020F54D1FFF75B
:100FA00033FE401B0228F5D903207FE16F4A136806
:100FB00043F480331360B5E76C4B1A6842F4802227
:100FC0001A601A6842F480321A60ABE7FFF71CFE21
:100FD0000546664B1B6813F4003FC3D0FFF714FEB1
:100FE000401B6428F5D9032060E1604B5B6813F473
:100FF000800FC6D15D4B1B6813F0020F03D0E3686E
:10100000012B40F05081594A136823F0F8032169FD
:1010100043EAC1031360236813F0080F42D06369E9
:101020006BB3534B0122C3F8802EFFF7EDFD05464D
:101030004E4B5B6F13F0020F34D1FFF7E5FD401B01
:101040000228F5D9032031E1484A136823F0F80358
:10105000216943EAC1031360DDE7454B00221A60B2
:10106000FFF7D2FD0546414B1B6813F0020FD2D0AB
:10107000FFF7CAFD401B0228F5D9032016E13C4BBF
:101080000022C3F8802EFFF7BFFD0546374B5B6F8C
:1010900013F0020F06D0FFF7B7FD401B0228F5D969
:1010A000032003E1236813F0040F77D02F4B1B6C50
:1010B00013F0805F33D1002301932C4B1A6C42F064
:1010C00080521A641B6C03F080530193019B01252D
:1010D000284B1B6813F4807F23D0A368012B34D0E6
:1010E000052B38D0214B1A6F22F001021A671A6FB4
:1010F00022F004021A67A368002B3DD0FFF784FD9D
:1011000006461A4B1B6F13F0020F46D1FFF77CFD0A
:10111000801B41F288339842F3D90320C6E00025B2
:10112000D6E7144A136843F480731360FFF76CFD2D
:101130000646104B1B6813F4807FCED1FFF764FD89
:10114000801B0228F5D90320B0E0084A136F43F052
:1011500001031367CFE7054B1A6F42F004021A67C9
:101160001A6F42F001021A67C5E700BF003802405B
:101170000000474200700040FFF746FD0646524B14
:101180001B6F13F0020F08D0FFF73EFD801B41F2EA
:1011900088339842F3D9032088E0EDB9A369002B86
:1011A00000F08380484A926802F00C02082A51D06D
:1011B000022B17D0454B00221A66FFF725FD044687
:1011C000414B1B6813F0007F42D0FFF71DFD001B51
:1011D0000228F5D9032069E03B4A136C23F08053C1
:1011E0001364DBE7394B00221A66FFF70DFD054655
:1011F000354B1B6813F0007F06D0FFF705FD401B41
:101200000228F5D9032051E0E369226A1343626A98
:1012100043EA8213A26A5208013A43EA0243E26AAD
:1012200043EA0263284A5360284B01221A66FFF7FB
:10123000EBFC0446244B1B6813F0007F06D1FFF73C
:10124000E3FC001B0228F5D903202FE000202DE04D
:1012500000202BE0012B2BD01B4B5B6803F480019B
:10126000E269914226D103F03F02216A8A4223D1EA
:10127000616A47F6C0721A40B2EB811F1ED103F4B7
:101280004031A26A5208013AB1EB024F18D103F083
:101290007063E26AB3EB026F14D1002006E0012014
:1012A0007047012002E0012000E0002002B070BD84
:1012B0000120FBE70120F9E70120F7E70120F5E72E
:1012C0000120F3E70120F1E7003802400000474227
:1012D00008B5254B9B6803F00C03042B3FD0082B6B
:1012E0003FD1214B5A6802F03F025B6813F4800F34
:1012F00012D01D4B5968C1F388111C480023A1FB73
:101300000001FEF76DFF184B5B68C3F30143013327
:101310005B00B0FBF3F025E0134B5968C1F3881C68
:101320004FEA4C11B1EB0C006EEB0E0E4FEA8E1330
:1013300043EA90638101091A63EB0E03DB0043EA81
:101340005173C90011EB0C0C43F100039902002307
:101350004FEA8C2041EA9C51FEF742FFD3E7034855
:1013600000E0034808BD00BF0038024040787D011E
:101370000024F400002800F09B8070B50D46044660
:101380004F4B1B6803F007038B4208D2CBB24C4A89
:101390001370136803F007038B4240F08B802368BF
:1013A00013F0020F17D013F0040F04D0454A9368CE
:1013B00043F4E0539360236813F0080F04D0414ACC
:1013C000936843F4604393603E4A936823F0F003CC
:1013D000A1680B439360236813F0010F32D0636858
:1013E000012B21D09A1E012A25D9364A126812F003
:1013F000020F61D033498A6822F0030213438B60E5
:10140000FFF702FC06462F4B9B6803F00C03626853
:10141000B3EB820F16D0FFF7F7FB801B41F2883346
:101420009842F0D9032042E0264A126812F4003FA5
:10143000E0D101203BE0234A126812F0007FD9D1AD
:10144000012034E01E4B1B6803F00703AB4207D9B1
:10145000EAB21B4B1A701B6803F00703AB422DD195
:10146000236813F0040F06D0164A936823F4E05360
:10147000E1680B439360236813F0080F07D0114A0B
:10148000936823F46043216943EAC1039360FFF743
:101490001FFF0C4B9B68C3F303130B4AD35CD8406C
:1014A0000A4B18600A4B1868FFF714FA002070BD49
:1014B000012070470120FAE70120F8E70120F6E754
:1014C000003C024000380240FC38000800000020C8
:1014D00008000020014B1868704700BF0000002082
:1014E00008B5FFF7F7FF044B9B68C3F38223034A59
:1014F000D35CD84008BD00BF003802400C3900085A
:101500000F2303600B4B9A6802F0030242609A6853
:1015100002F0F00282609A6802F4E052C2609B68B6
:10152000DB0803F4E0530361034B1B6803F007037C
:101530000B60704700380240003C02402DE9F04744
:1015400082B00546884617461E46FFF75DFB0A9B9C
:101550001B1A03EB0609FFF757FB82462B4B1B6850
:10156000C3F3CB3309FB03F301932B689C6838EA80
:1015700004030CBF4FF0010C4FF0000CBC4540D0F1
:10158000B6F1FF3FF1D0FFF73FFBA0EB0A00484563
:101590000AD2B9F1000F07D0019A02B14A46019B65
:1015A000013B01939146E0E72A68536823F0E0038A
:1015B00053606B68B3F5827F0BD0AB6AB3F5005F05
:1015C00014D0012385F85130002385F850300320D2
:1015D00018E0AB68B3F5004F02D0B3F5806FECD1E3
:1015E0002A68136823F040031360E6E72A6813684B
:1015F00023F4005313602A68136843F40053136004
:10160000DFE7002002B0BDE8F08700BF0000002047
:1016100010B584B00446164B1868164BA3FB003077
:10162000400D4FF47A7303FB00F003906368B3F549
:10163000827F0BD0039BBBB1039B013B03932368C9
:101640009B6813F0800FF5D100200EE000920B464E
:10165000002280212046FFF771FF30B1636D43F017
:1016600020036365032000E0002004B010BD00BF2C
:1016700000000020819F5E1610B582B004460B4624
:101680004168B1F5827F14D06168B1F5827F2AD1BB
:10169000A168B1F5806F19D0009200228021204608
:1016A000FFF74CFF30B3636D43F020036365032005
:1016B00020E08168B1F5004F02D0B1F5806FE3D131
:1016C0002068016821F040010160DDE700920022FE
:1016D00001212046FFF732FF60B1636D43F0200324
:1016E0006365032006E00092002201212046FFF7F7
:1016F00025FF08B902B010BD636D43F02003636598
:101700000320F7E700285AD010B50446436A33B9DE
:101710004368B3F5827F05D00023C36102E0002354
:10172000036143610023A36294F85130002B40D041
:10173000022384F851302268136823F040031360B9
:10174000636803F48273A26802F404421343E268FC
:1017500002F400621343226902F002021343626939
:1017600002F001021343A26902F400721343E2691A
:1017700002F038021343226A02F080021343A26A85
:1017800002F40052216813430B60638B03F00403DF
:10179000626A02F01002216813434B602268D36929
:1017A00023F40063D36100206065012384F8513085
:1017B00010BD84F850302046FFF732F8B8E701201A
:1017C00070472DE9F04383B01D4690F85030012B4F
:1017D00000F0D180044688469146012380F85030BD
:1017E000FFF712FA074694F85160F6B2012E40F066
:1017F000AF80B8F1000F00F0AC80B9F1000F00F03D
:10180000A880032384F8513000236365C4F8308036
:10181000A4F83490A4F83690A363A387E3876364A5
:101820002364A368B3F5004F1ED023681A6812F032
:10183000400F03D11A6842F040021A60E368B3F522
:10184000006F1CD0636813B1B9F1010F52D1226B44
:10185000236812781A73236B01332363E38E9BB2E0
:10186000013B9BB2E38645E02268136823F0400306
:1018700013602268136843F480431360D5E76368FC
:1018800013B1B9F1010F16D1226B23681288DA6007
:10189000236B02332363E38E9BB2013B9BB2E3864F
:1018A00009E0FFF7B1F9C01BA84202D3B5F1FF3F31
:1018B00059D1002D59D0E38E9BB2002B33D0236831
:1018C0009A6812F0020FECD0226B1288DA60236B58
:1018D00002332363E38E9BB2013B9BB2E386EAE7CC
:1018E000FFF792F9C01BA84202D3B5F1FF3F3ED1EA
:1018F000002D3ED0E38E9BB2ABB123689A6812F004
:10190000020FEDD0226B12781A73236B013323631D
:10191000B4F836C01FFA8CFC0CF1FF3C1FFA8CFCAB
:10192000A4F836C0E6E73A4629462046FFF770FE9F
:1019300008B120236365A36833B901932368DA688B
:1019400001929B680193019B636D13B9002600E02F
:101950000226012384F85130002384F850303046A9
:1019600003B0BDE8F0830326F3E70326F1E703267F
:10197000EFE70326EDE70226F1E72DE9F04383B018
:101980001F460A9D90F85030012B00F0108104464C
:1019900088469146012380F85030FFF735F9064616
:1019A00094F85130DBB26268012B0AD0B2F5827F25
:1019B00040F0E380A268002A40F0E980042B40F068
:1019C000E880B8F1000F00F0E680B9F1000F00F0F8
:1019D000E480002F00F0E38094F85130DBB2042B58
:1019E00002D0052384F8513000236365C4F8389091
:1019F000E787A787C4F83080E786A78623646364F7
:101A000023681A6812F0400F03D11A6842F04002AE
:101A10001A60E368B3F5006F11D063680BB1012F52
:101A20000BD1226B236812781A73236B0133236363
:101A3000E38E9BB2013B9BB2E38601276BE06368B8
:101A40000BB1012F0BD1226B23681288DA60236B54
:101A500002332363E38E9BB2013B9BB2E3860127F3
:101A60001CE023689A6812F0010F0ED0E28F92B248
:101A70005AB1DA68A36B1A80A36B0233A363E38FB6
:101A80009BB2013B9BB2E3870127FFF7BDF8801BA8
:101A9000A84203D3B5F1FF3F40F08380E38E9BB2B1
:101AA0001BB9E38F9BB2002B53D023689A6812F0C6
:101AB000020FD6D0E28E92B2002AD2D0002FD0D020
:101AC000226B1288DA60236B02332363E38E9BB2AE
:101AD000013B9BB2E3860027C3E723689A6812F0B4
:101AE000010F0ED0E28F92B25AB1DA68A36B1A706E
:101AF000A36B0133A363E38F9BB2013B9BB2E387EC
:101B00000127FFF781F8831BAB4202D3B5F1FF3FFA
:101B100049D1002D49D0E38E9BB213B9E38F9BB21C
:101B2000BBB123689A6812F0020FD6D0E28E92B24F
:101B3000002AD2D0002FD0D0226B12781A73236BD8
:101B400001332363E38E9BB2013B9BB2E386002704
:101B5000C3E7324629462046FFF75AFD48B9A36835
:101B600063B901932368DA6801929B680193019B32
:101B700004E020236365012000E00220012384F8B3
:101B80005130002384F8503003B0BDE8F0830220C8
:101B9000F4E70220F2E70120F0E70120EEE7012060
:101BA000ECE70320EAE70320E8E70320E6E702206A
:101BB000EAE72DE9F04383B00446884691461D4686
:101BC0004068B0F5827F38D094F85030012B00F097
:101BD000AE80012384F85030FFF716F8074694F8DA
:101BE0005160F6B2012E40F08F80B8F1000F00F086
:101BF0008C80B9F1000F00F08880042384F8513004
:101C000000236365C4F83880A4F83C90A4F83E90A3
:101C10002363A386E38623646364A368B3F5004F5C
:101C200019D023681A6812F0400F03D11A6842F0E5
:101C300040021A60E3681BB341E0A368002BC3D1E4
:101C4000042384F85130009513460A462046FFF7D6
:101C500094FE06465FE02268136823F04003136099
:101C60002268136823F480431360DAE7FEF7CCFFA1
:101C7000C01BA84202D3B5F1FF3F50D1002D50D078
:101C8000E38F9BB2002B33D023689A6812F0010FC8
:101C9000ECD0A26B1B7B1370A36B0133A363E38FA8
:101CA0009BB2013B9BB2E387EAE7FEF7ADFFC01BA7
:101CB000A84202D3B5F1FF3F35D1002D35D0E38FD7
:101CC0009BB2ABB123689A6812F0010FEDD0DA68CD
:101CD000A36B1A80A36B0233A363B4F83EC01FFA50
:101CE0008CFC0CF1FF3C1FFA8CFCA4F83EC0E6E72C
:101CF0003A4629462046FFF7BFFC08B1202363651A
:101D0000636D13B9002600E00226012384F85130E8
:101D1000002384F85030304603B0BDE8F08303263A
:101D2000F3E70326F1E70326EFE70326EDE70226B4
:101D3000F1E7704790F83D30DBB2012B2FD1022341
:101D400080F83D300268D36843F00103D360036834
:101D5000154A934218D0B3F1804F15D0A2F57C42BA
:101D6000934211D002F5806293420DD002F5806259
:101D7000934209D002F59A32934205D01A6842F094
:101D800001021A60002070479A6802F00702062AD2
:101D900007D01A6842F001021A6000207047012043
:101DA00070470020704700BF000001407047704737
:101DB0007047704710B5044603681A6912F0020FA5
:101DC00011D0DA6812F0020F0DD06FF002021A6122
:101DD0000123037703689B6913F0030F70D0FFF7AB
:101DE000E6FF0023237723681A6912F0040F12D04C
:101DF000DA6812F0040F0ED06FF004021A610223A9
:101E0000237723689B6913F4407F5FD02046FFF758
:101E1000CEFF0023237723681A6912F0080F12D02F
:101E2000DA6812F0080F0ED06FF008021A6104236E
:101E300023772368DB6913F0030F4ED02046FFF7AA
:101E4000B6FF0023237723681A6912F0100F12D00F
:101E5000DA6812F0100F0ED06FF010021A6108232A
:101E600023772368DB6913F4407F3DD02046FFF7DA
:101E70009EFF0023237723681A6912F0010F03D015
:101E8000DA6812F0010F36D123681A6912F0800F58
:101E900003D0DA6812F0800F34D123681A6912F087
:101EA000400F03D0DA6812F0400F32D123681A696C
:101EB00012F0200F03D0DA6812F0200F30D110BDDD
:101EC000FFF774FF2046FFF773FF8AE72046FFF70E
:101ED0006DFF2046FFF76CFF9BE72046FFF766FF8C
:101EE0002046FFF765FFACE72046FFF75FFF20467F
:101EF000FFF75EFFBDE76FF001021A612046FEF7B3
:101F0000C9FBC1E76FF080021A61204600F08BF830
:101F1000C3E76FF040021A612046FFF74AFFC5E7AA
:101F20006FF020021A61204600F07CF8C7E700003D
:101F30000368254A90420ED0B0F1804F0BD0A2F535
:101F40007C42904207D002F58062904203D002F5B5
:101F50008062904203D123F070034A6813431A4A07
:101F600090421AD0B0F1804F17D0A2F57C42904237
:101F700013D002F5806290420FD002F58062904249
:101F80000BD002F59A32904207D002F5806290425F
:101F900003D002F58062904203D123F44073CA68F3
:101FA000134323F080034A69134303608B68C362C1
:101FB0000B688362044B984202D00123436170474F
:101FC0000B690363F9E700BF0000014040B310B59F
:101FD000044690F83D30F3B1022384F83D302146A9
:101FE00051F8040BFFF7A4FF012384F8463084F86E
:101FF0003E3084F83F3084F8403084F8413084F833
:10200000423084F8433084F8443084F8453084F812
:102010003D30002010BD80F83C30FFF78AFEDBE742
:102020000120704770477047842801D00330704703
:102030000020704708B500F035FD002008BD2DE9EF
:10204000F04387B004460F464569BDB18669AEB11D
:10205000D0F80480D0F80090B0F90800FFF7E4FF52
:102060000296019500903B4622694946404600F0A1
:10207000A9FC0590059807B0BDE8F083656826685F
:10208000D4F81080B4F90800FFF7CEFF05AB019338
:1020900000903B461FFA88F23146284600F0CDFCFE
:1020A0000128E7D00020E6E708B500B9012000F0DC
:1020B00043FE002008BD00F1080343604FF0FF32EB
:1020C0008260C360036100230360704700230361E3
:1020D000704743684B609A688A60516099600861F4
:1020E000036801330360704730B40D68B5F1FF3FFA
:1020F00011D000F108031C465B681A68AA42FAD99D
:1021000063684B6099608C606160086103680133AB
:10211000036030BC70470469F2E703694168826874
:102120008A60416851605A68824206D0002202618A
:102130001A68013A1A601868704782685A60F5E7B1
:1021400082B0002301930D4B1B68B3F1FF3F08D011
:102150004FF0500383F31188BFF36F8FBFF34F8F9E
:10216000FEE74FF0500383F31188BFF36F8FBFF387
:102170004F8F019B002BFCD002B070470C00002059
:1021800008480068006880F308884FF0000080F37A
:10219000148862B661B6BFF34F8FBFF36F8F00DF55
:1021A00000BF000008ED00E0DFF80C00016841F41A
:1021B000700101607047000088ED00E04FF080730F
:1021C00040F8043C21F0010140F8081C054B40F8A0
:1021D0000C3C40F8202C6FF0020340F8243C4438BB
:1021E000704700BF4121000800000000000000000F
:1021F000074B19680868B0E8F04F80F30988BFF30F
:102200006F8F4FF0000080F311887047AFF30080AC
:10221000A44300204FF0500383F31188BFF36F8F66
:10222000BFF34F8F0B4A136801331360012B00D0AB
:1022300070474FF0E023D3F8043D13F0FF0FF7D0C1
:102240004FF0500383F31188BFF36F8FBFF34F8FAD
:10225000FEE700BF0C000020094B1B6843B94FF09C
:10226000500383F31188BFF36F8FBFF34F8FFEE7E7
:10227000013B034A13600BB983F31188704700BF19
:102280000C00002000000000000000000000000022
:10229000EFF30980BFF36F8F154B1A681EF0100F14
:1022A00008BF20ED108A20E9F04F10602DE90900E9
:1022B0004FF0500080F31188BFF34F8FBFF36F8F43
:1022C00000F060FD4FF0000080F3118809BC196830
:1022D0000868B0E8F04F1EF0100F08BFB0EC108A8D
:1022E00080F30988BFF36F8F704700BFAFF30080A2
:1022F000A443002008B54FF0500383F31188BFF3C7
:102300006F8FBFF34F8F00F00FFC28B14FF0E02329
:102310004FF08052C3F8042D002383F3118808BDC9
:102320004FF0E022002313619361054B1B680549C0
:10233000A1FB03139B09013B536107231361704702
:1023400000000020D34D62104FF0E023D3F8002DA1
:102350003D4B9A421CD04FF0E023D3F8002D3B4B6D
:102360009A421ED030B583B0394B1A78D2B201925E
:10237000FF221A701B78DBB28DF803309DF8033012
:1023800003F05003334A1370334B07221A601BE0EB
:102390004FF0500383F31188BFF36F8FBFF34F8F5C
:1023A000FEE74FF0500383F31188BFF36F8FBFF345
:1023B0004F8FFEE7284A1368013B13609DF80330F6
:1023C0005B00DBB28DF803309DF8033013F0800F13
:1023D000F0D1214B1B68032B08D04FF0500383F33F
:1023E0001188BFF36F8FBFF34F8FFEE71B021A4AAE
:1023F000136003F4E0631360019BDBB2144A1370B3
:102400004FF0E024D4F8203D43F47003C4F8203D9D
:10241000D4F8203D43F07043C4F8203DFFF780FF1F
:1024200000250E4B1D60FFF7BFFED4F8343F43F08C
:102430004043C4F8343FFFF7A3FE00F0A3FCFFF7CE
:102440007FFE284603B030BD71C20F4170C20F41FC
:1024500000E400E07C070020800700200C00002042
:10246000124A12F0070F1ED0D11D21F00701C1F54D
:10247000705313440A460E48026000214160134421
:10248000083B23F007030B48036059601960991A51
:1024900051601360084B1960084B1960084B4FF0EE
:1024A00000421A6070474FF47053E4E78807002039
:1024B0009C43002084070020904300208C43002090
:1024C00088430020164B1A461B688342FBD3516891
:1024D00002EB010C844509D0416800EB010C634517
:1024E00009D00360904219D01060704740680144E1
:1024F00051601046F0E710B40A4C2468A3420BD098
:102500005B681944416013681B680360904200D007
:1025100010605DF8044B70470460F7E7704700BF38
:102520009C4300208407002070B5054600F0F4FAB3
:10253000364B1B68A3B1364B1B681D424ED135B1DB
:10254000083515F0070F02D025F007050835002DD6
:1025500046D0304B1B68AB4251D32F4A146804E07D
:10256000FFF77EFFE7E722461C466368AB4202D2D4
:102570002368002BF7D1254B1B68A34241D0166876
:1025800008362368136063685B1B102B10D9601931
:1025900010F0070F08D04FF0500383F31188BFF3FA
:1025A0006F8FBFF34F8FFEE743606560FFF78AFFD1
:1025B000626818490B689B1A0B60184909688B42BE
:1025C00001D216490B60124B1B6813436360002352
:1025D0002360134A13680133136002E0002600E011
:1025E000002600F02DFB16F0070F0CD04FF0500323
:1025F00083F31188BFF36F8FBFF34F8FFEE7002681
:10260000EFE70026EDE7304670BD00BF84070020ED
:10261000884300208C4300209C43002090430020EE
:1026200094430020002834D038B50446A0F10805B2
:1026300050F8043C174A1268134208D14FF0500377
:1026400083F31188BFF36F8FBFF34F8FFEE750F80E
:10265000081C41B14FF0500383F31188BFF36F8F13
:10266000BFF34F8FFEE723EA020340F8043C00F07B
:1026700053FA54F8041C084A13680B4413602846A4
:10268000FFF720FF054A13680133136000F0D8FA02
:1026900038BD7047884300208C43002098430020B9
:1026A000084B1B681B6823B9074B4FF0FF321A60B9
:1026B0007047044B1B68DB68DB685A68024B1A6082
:1026C000704700BFA84300207C4400202DE9F0475C
:1026D00007469846089DDDF824900A9C266B02F177
:1026E0008042013A06EB820626F0070600293AD01E
:1026F0008E464FF0000CBCF10F0F0BD81EF80C20CB
:1027000004EB0C0383F834201EF80C3013B10CF1E9
:10271000010CF0E7002384F84330062D00D906258C
:10272000E56265644FF0000AC4F848A0201DFFF779
:10273000CDFC04F11800FFF7C9FC2461C5F10705C1
:10274000A5616462C4F84CA084F850A042463946A2
:102750003046FFF733FD2060B9F1000F01D0C9F812
:102760000040BDE8F087002384F83430D5E700004E
:1027700038B5002407E004EB840293000E481844A7
:10278000FFF799FC0134062CF5D90C4D2846FFF7CC
:1027900092FC0B4C2046FFF78EFC0A48FFF78BFC9F
:1027A0000948FFF788FC0948FFF785FC084B1D60C6
:1027B000084B1C6038BD00BFB043002050440020CF
:1027C0006444002088440020B4440020A044002039
:1027D000A8430020AC43002010B50446FFF71AFDC3
:1027E000214A136801331360204B1B685BB1204BF7
:1027F0001B686BB91D4B1B68DA6AE36A9A4207D8FB
:102800001A4B1C6004E0194B1C601368012B28D084
:10281000184A136801331360E06A01238340164AA3
:1028200011680B43136000EB8000211D134B03EB79
:102830008000FFF74EFCFFF70FFD0D4B1B687BB1CF
:102840000A4B1B68DA6AE36A9A4209D24FF0E02326
:102850004FF08052C3F8042DBFF34F8FBFF36F8F3B
:1028600010BDFFF785FFD3E73C440020A4430020C0
:102870009C440020484400204C440020B0430020E9
:1028800010B5044690F8513063B1012B11D0022BE2
:102890000ED04FF0500383F31188BFF36F8FBFF357
:1028A0004F8FFEE7006BFFF7BDFE2046FFF7BAFE35
:1028B00010BDFFF7B7FEFBE70F4B1B68D3B110B598
:1028C000FFF7A8FC0D4BDB68DC68201DFFF725FC3B
:1028D0000B4A1368013B1360074A1368013B1360FE
:1028E000FFF7BAFC2046FFF7CBFF034B1B68002B1A
:1028F000E6D110BD704700BF40440020B444002022
:102900003C44002008B5FFF7D7FF074B1B68012B9D
:10291000F9D94FF0E0234FF08052C3F8042DBFF3F4
:102920004F8FBFF36F8FEEE7B043002070B50446C2
:102930000D461D4B1E681D4B18680430FFF7EDFB5C
:1029400050B91A4B1B68DA6A012303FA02F21849DC
:102950000B6823EA02030B60B4F1FF3F0DD034444F
:10296000124B1B685C60A64210D9124B18680F4BC3
:1029700019680431FFF7B8FB70BD002DEFD00B4B89
:10298000196804310C48FFF7A4FBF5E70B4B1868F6
:10299000064B19680431FFF7A7FB094B1B68A342DC
:1029A000EAD9074B1C60E7E7C8440020A443002095
:1029B0004C440020AC430020A0440020A843002049
:1029C0007C44002030B587B00B9C7CB10C9DB5B128
:1029D00054250495049D542D1AD04FF0500383F3D1
:1029E0001188BFF36F8FBFF34F8FFEE74FF0500397
:1029F00083F31188BFF36F8FBFF34F8FFEE74FF064
:102A0000500383F31188BFF36F8FBFF34F8FFEE73F
:102A1000049D0C9D2C63022485F8514000240394EE
:102A2000029505AC01940A9C0094FFF74FFE0C98A8
:102A3000FFF7D2FE059807B030BD2DE9F04385B011
:102A40000746884614461E469000FFF76DFD00B30A
:102A500081465420FFF768FD0546B0B1C0F83090BC
:102A6000E5B1002385F85130039302950D9B019346
:102A70000C9B00933346224641463846FFF726FE1C
:102A80002846FFF7A9FE012005E04846FFF7CAFDEA
:102A9000E6E74FF0FF3005B0BDE8F0834FF0FF30C0
:102AA000F9E7000010B588B000240594069407AA41
:102AB00006A905A8FDF74AFD059B0293069B019315
:102AC00000942346079A0E490E48FFF77BFF0E4BF2
:102AD000186090B14FF0500383F31188BFF36F8FEC
:102AE000BFF34F8F094B4FF0FF321A60084B0122A2
:102AF0001A60084B1C60FFF727FC08B010BD00BF30
:102B00001439000805290008784400207C4400207E
:102B10009C440020C8440020024A1368013313601B
:102B2000704700BF44440020F8B53A4B1B68002BA7
:102B300069D1394B1D6801351D60C5B9374B1B681C
:102B40001B6843B14FF0500383F31188BFF36F8FBD
:102B5000BFF34F8FFEE7314A1168314B18681060A0
:102B60001960304A136801331360FFF799FD2E4B4B
:102B70001B68AB423DD900272C4B1B68DB6A03EB7B
:102B800083039A002A4B9B58012B00D90127294B1C
:102B90001B68002B3CD001273AE001271F4B1B6824
:102BA0001B6843B31D4B1B68DB68DC6863689D4290
:102BB00026D3261D3046FFF7B0FAA36A1BB104F1F5
:102BC0001800FFF7AAFAE36A01229A401A49086836
:102BD00002430A6003EB83039A0031461448104411
:102BE000FFF777FAE26A114B1B68DB6A9A42D4D28C
:102BF000D4E70027D2E70C4B4FF0FF321A60BBE757
:102C0000094A1360B8E70D4A1368013313600027BF
:102C10003846F8BD44440020C8440020A8430020A2
:102C2000AC430020804400207C440020A4430020CA
:102C3000B0430020CC4400204C44002084440020B9
:102C400038B5354B1B6843B94FF0500383F31188F7
:102C5000BFF36F8FBFF34F8FFEE7FFF7DBFA2E4B0B
:102C60001A68013A1A601B68002B4FD12B4B1B6866
:102C70000BB900244BE00024294B1B681BB3284BE5
:102C8000DB68DC6804F11800FFF747FA251D2846C9
:102C9000FFF743FAE06A01238340224A11680B439D
:102CA000136000EB800029461F4B03EB8000FFF709
:102CB00010FAE26A1D4B1B68DB6A9A42DCD31C4B9C
:102CC00001221A60D8E70CB1FFF7EAFC194B1C6827
:102CD00084B9174B1C68D4B14FF0E0234FF08052F9
:102CE000C3F8042DBFF34F8FBFF36F8F01240EE0A5
:102CF000013C07D0FFF718FF0028F9D00C4B012248
:102D00001A60F5E70B4B00221A60E2E70024FFF798
:102D1000A3FA204638BD00BF444400203C440020B4
:102D2000884400204C440020B0430020A4430020ED
:102D3000CC4400208444002010B5A8B10446104BB8
:102D40001B6843B14FF0500383F31188BFF36F8FBB
:102D5000BFF34F8FFEE7FFF7DFFE00212046FFF7AE
:102D6000E5FDFFF76DFF48B94FF0E0234FF08052CB
:102D7000C3F8042DBFF34F8FBFF36F8F10BD00BF9B
:102D800044440020204B1B681BB1204B01221A60D9
:102D900070471E4B00221A601D4B1B68B3FA83F369
:102DA000DBB2C3F11F0303EB83018A0019498A5880
:102DB00042B94FF0500383F31188BFF36F8FBFF315
:102DC0004F8FFEE7134903EB830082000A445068EB
:102DD0004068506003EB830C4FEA8C0208321144C8
:102DE000884209D003EB83039A000A4B13445B68C3
:102DF000DA68094B1A607047406862469100054ADC
:102E00000A445060EEE700BF44440020CC44002058
:102E10004C440020B0430020A4430020DFF834D00D
:102E20000D480E490E4A002302E0D458C450043322
:102E3000C4188C42F9D30B4A0B4C002301E01360F9
:102E40000432A242FBD3FDF78FFD00F017F8FDF727
:102E50007FFC704700000220000000204404002096
:102E60003439000844040020D4440020FEE7000068
:102E7000014B1868704700BF1000002070B50D4E60
:102E80000D4D761BB61006D0002455F8043B0134D6
:102E90009847A642F9D1094E094D761B00F0FAFC7D
:102EA000B61006D0002455F8043B01349847A642DA
:102EB000F9D170BD283900082839000830390008D8
:102EC00028390008830730B548D0541E002A3FD067
:102ED000CAB2034601E0013C3AD303F8012B9D0737
:102EE000F9D1032C2DD9CDB245EA05250F2C45EAA1
:102EF000054536D9A4F1100222F00F0C03F1200E83
:102F0000E6444FEA121C03F1100242E9045542E97B
:102F1000025510327245F8D10CF1010214F00C0F79
:102F200003EB021204F00F0C13D0ACF1040323F0F6
:102F300003030433134442F8045B9342FBD10CF0C7
:102F400003042CB1CAB21C4403F8012B9C42FBD1F0
:102F500030BD64461346002CF4D1F9E7034614460D
:102F6000BFE71A46A446E0E7024B13B1024800F05F
:102F700005B8704700000000892F000800230146B3
:102F80001A46184600F01AB838B5084B084D5B1BB6
:102F90009C1007D0043B1D44013C55F80439984768
:102FA000002CF9D1BDE8384000F07ABC3439000873
:102FB00030390008704700BF704700BF2DE9F04767
:102FC000DFF880A00646DAF8000098460F469146E2
:102FD000FFF7F0FF1A4B1B68D3F8484124B365682C
:102FE0001F2D26DC5EB96B1C0235DAF80000636029
:102FF00044F82570FFF7E0FF0020BDE8F08704EB00
:1030000085010123C1F88890D4F88821AB401A4388
:10301000022EC4F88821C1F80881E4D1D4F88C21AB
:103020001343C4F88C31DEE703F5A674C3F84841B6
:10303000D5E7DAF80000FFF7BFFF4FF0FF30DCE71D
:103040001C3900084004002008B52DED048BB0EEBB
:10305000608AB0EE409A00F055F8B4EE488AF1EE7E
:1030600010FAF0EE408A0BD6B5EE409AF1EE10FA67
:1030700017D1B5EE408AF1EE10FA06D1F7EE008ACC
:10308000B0EE680ABDEC048B08BDB0EE480A00F053
:1030900081FB0028F4D0B5EEC08AF1EE10FAEFD52E
:1030A00025E000F077FB88B1F5EE408AF1EE10FAEA
:1030B000E6D1B0EE490A00F06DFB0028E0D0B0EE9A
:1030C000480A00F067FB0028DAD010E0B0EE490AA9
:1030D00000F060FB0028E7D0B0EE480A00F05AFB91
:1030E0000028E1D0F4EE688AF1EE10FA04D6FFF77A
:1030F000BFFE22230360C3E7FFF7BAFE212303606C
:10310000BEE700BF2DE9F0412DED028B82B0CDED81
:10311000010A8DED000ADDE9004535F0004611D1C8
:1031200084F48004640014F5000F40F21481DDED96
:10313000007A9DED017A37EE870A02B0BDEC028B72
:10314000BDE8F08124F00047B7F1FF4FEFDCB6F1A6
:10315000FF4F00F3F580002CC0F204814FF000080F
:10316000B6F1FF4F00F01981B6F17E5F00F02481C7
:10317000B5F1804F00F00C81B5F17C5F9DED000A48
:1031800040F01F81002C80F2498100F0FBFAB7F17A
:10319000FF4F00F02781002F00F02181B7F17E5F03
:1031A00000F01781E20F013A58EA020300F03D8176
:1031B000B6F19A4F40F360819F4B9F4240F3578294
:1031C0009E4B9F4200F36082F7EE007A30EE670A72
:1031D0009FED9B6ADFED9B5AF5EE007AA0EE676AE1
:1031E000F6EE006AE6EE406A20EE007ADFED967AAF
:1031F0009FED966A27EE267A67EEC77AE0EE257A8B
:10320000F0EE676AE0EE066A16EE903A23F47F630A
:1032100023F00F0307EE103AA0EE467A06EE903A3E
:1032200077EEC77A25F47F6525F00F059DED017ACD
:1032300006EE105A67EE877A37EE466A07EE105AA6
:10324000E6EE267A08F1FF3858EA020326EE877A7E
:10325000B7EE000A77EE876ABFEE006A16EE903A84
:103260000CBFB0EE468AB0EE408A002B23F000423D
:1032700040F3C581B2F1864F00F3248200F017823B
:10328000B2F17C5F00F3C7810022104623F47F6314
:1032900023F00F0306EE103ADFED6D6A9FED6D5AD5
:1032A0009FED6D2A9FED6D3ADFED6D3A9FED6D4A12
:1032B000DFED6D4A36EE477AF0EE002A77EEC77AF8
:1032C00026EE267ADFED696AA7EEA67AF0EE476A67
:1032D000E6EE056A66EEA65AF0EE667AA5EE823A4A
:1032E000E6EE457AB0EE636AA3EE256A77EE677A7A
:1032F000B0EE447AA6EE257AB0EE646AA7EE256AAF
:10330000B0EE667AA6EE657AE6EEA77A66EE875AA2
:1033100037EE626AB7EE005A85EE867A77EE677A04
:1033200077EEE66A35EE660A10EE103A1344B3F50E
:10333000000FC0F2A68100EE103A20EE080AFCE66B
:10334000B4F17E5F7FF4F3AE85F480056D0015F572
:10335000000F3FF6ECAEB7EE000A02B0BDEC028BF8
:10336000BDE8F081B6F1974F0FDAB6F17E5F09DB69
:10337000F315C3F1960346FA03F202FA03F3B342DC
:1033800000F038814FF00008EEE64FF00208E7E663
:10339000DDED007A27EEA70ACFE6B7F17E5FDAD03F
:1033A0002BDD9FED330ADDED017A002DB8BFF0EE85
:1033B000407AB0EE670AC0E6002D23DB9DED000ADF
:1033C000BBE600F0DFF9B7F1FF4F02D0002F7FF42A
:1033D000E5AE002DBCBFF7EE007A87EE800A002C28
:1033E000BFF6ABAEA7F17E5757EA080340F0FB806B
:1033F00070EE407A87EEA70A9FE6002D09DB9FED6D
:103400001C0A9AE69DED007AF7EE007A87EE870AAD
:1034100093E6DDED017AB1EE670A8EE602B0BDEC0F
:10342000028BBDE8F04100F081B9DDED007A77EE66
:10343000E77A87EEA70A80E6F3FF7F3F0700803F29
:10344000ABAAAA3E70A5EC363BAAB83F00AAB83F8B
:103450008CBEBF350072313F4CBB31330EEADDB557
:1034600055B38A38610B36BBABAA2A3E1872313F7E
:10347000000000000000804B14F0FF4F40F0F5808A
:103480005FED047A60EE277A6FF0170317EE907AFB
:103490009448F915C7F316077F398742194447F056
:1034A0007E5340F3DA809048874240F3F7809FEDE7
:1034B0008F4A0131B0EE443AA3F50003F7EE005A0B
:1034C000002006EE103A76EE257AB7EE007A87EE07
:1034D000270A5B1043F0005303F58023034476EE84
:1034E000656A07EE901A66EE803AB8EEE77A13EE58
:1034F000901A07EE903A7E4BDFED7E0A9FED7E8AB2
:103500009FED7E1ADFED7E2ADFED7E1A9FED7E2A8B
:1035100077EEE55A194005EE101A36EE656A63EE4D
:10352000A35AE5EE676AF0EE607AE5EE887AE5EE9A
:10353000466AA7EEA51A66EE806AE1EE252A73EECA
:10354000857AE2EEA51A25EEA58AA1EEA52A67EEF8
:10355000A67AF0EE084AB0EE646AE8EE027AA5EECA
:10356000056ADFED6A0A9FED6A1ADFED6A2A36EE18
:10357000276A16EE101A194006EE101A76EE644A03
:10358000E5EE454A77EEE47A67EEA37AE6EE867AD0
:10359000F0EE675AE5EE065A15EE901A194006EE5F
:1035A000901AE5EE466A05EE901A77EEE67A67EE37
:1035B000A07AE5EE817A77EE837AF0EE676AE5EE3F
:1035C000A26A76EE846A76EE876A16EE901A194041
:1035D00006EE901A36EEC77A37EE447AA5EEE27A16
:1035E00077EEC77A1EE6B8F1010F7FF4A6ADB1EE13
:1035F000400AA2E502F00102C2F10208B4E5464920
:103600008A4267DC7FF43CAE76EEC76AF4EEE76A86
:10361000F1EE10FA5EDAD2154FF400017E3A41FA6B
:1036200002F21A44C2F3C7513C4C7F390C41C2F339
:10363000160022EA040206EE902A37EE667A40F47B
:103640000000C1F117010841002B77EE876AB8BF6F
:10365000404216EE903AC20518E69FED244AF7EE76
:10366000005AB0EE443A00202BE7002310E7002D6B
:103670000CDB002002B0BDEC028BBDE8F04100F095
:1036800075B800F095F858E6002DF2DD002002B084
:10369000BDEC028BBDE8F04100F06EB89FED204A12
:1036A0009FED203AF7EE085A4FF4001009E79FED1E
:1036B0001E6A76EEC76A37EE866AB4EEE66AF1EE07
:1036C00010FAA8DDB5EEC08AF1EE10FA4CBF012069
:1036D0000020DCE7B5EEC08AF1EE10FA4CBF012005
:1036E0000020C7E771C41C00D6B35D0000000000D5
:1036F00000F0FFFF55326C3E42F1533E05A38B3E76
:10370000ABAAAA3EB76DDB3E9A99193F4F38763F78
:10371000A0C39D360038763F00001643FFFF7F00B0
:1037200000C0153FDCCFD1353CAA3833B1EEC00A1A
:10373000704700BF10B582B08DED010A0446FFF757
:1037400097FB9DED010A046002B010BD30B1F1EEAF
:10375000407A27EE800A2220FFF7ECBFF0EE407A95
:1037600027EE800A2220FFF7E5BF00BF9FED010A88
:10377000FFF7ECBF000000109FED010AFFF7E6BF66
:103780000000007010EE103A23F0004300EE103AF3
:10379000704700BF82B08DED010A019820F0004013
:1037A000B0F1FF4FACBF0020012002B0704700BF56
:1037B00082B08DED010A019B33F000422AD0B2F1B4
:1037C000FF4F23D213F0FF4F28D19DED017ADFED9B
:1037D0002A7A2A4B67EE277A9842CDED017A37DBB9
:1037E000019BC3F3C752193A0244FE2A1ADD9FED2A
:1037F000240A9FED247A019B002BF0EE407AB8BF9B
:10380000B0EE470A20EE270A02B0704730EE000AF9
:1038100002B070479DED010A02B07047D20D02441C
:10382000FE2AE4DC002A0BDC12F1160F17DA4CF248
:1038300050339842DBDC9FED140A9FED147ADAE7EF
:1038400023F0FF4343EAC25300EE103A02B0704740
:103850009FED0D0ADDED017A27EE800AD8E71932D7
:1038600023F0FF4343EAC253DFED097A07EE103A33
:1038700027EE270ACCE700BF0000004CB03CFFFF5A
:10388000CAF24971CAF249F16042A20D6042A28DAA
:1038900000000033F8B500BFF8BC08BC9E46704776
:0C38A000F8B500BFF8BC08BC9E4670479D
:1038AC00E4380008E50400080000000000000000F7
:1038BC00800000000000000000000000F03800084C
:1038CC00250500080000000000000000800000003A
:1038DC00000000000000000064656661756C7454A3
:1038EC0061736B004C45445F7461736B00000000A6
:1038FC000000000000000000010203040607080994
:10390C00000000000102030449444C450000000083
:04391C00180000206F
:08392000F0C8FF7F0100000068
:08392800692F0008C501000829
:04393000A1010008E9
:103934000024F4000100000010000000AAAAAAAAB2
:103944001800002000000000000000000403002014
:103954006C030020D40300200000000000000000DD
:103964000000000000000000000000000000000053
:103974000000000000000000000000000000000043
:103984000000000000000000000000000000000033
:103994000000000000000000000000000000000023
:1039A4000000000000000000000000000000000013
:1039B4000000000000000000000000000000000003
:1039C40000000000000000000000000000000000F3
:1039D40000000000000000000000000000000000E3
:1039E40000000000000000000000000000000000D3
:1039F40001000000000000000E33CDAB34126DE670
:103A0400ECDE05000B0000000000000000000000D8
:103A140000000000000000000000000000000000A2
:103A24000000000000000000000000000000000092
:103A34000000000000000000000000000000000082
:103A44000000000000000000000000000000000072
:043D7400D044002017
:0400000508002E1DA4
:00000001FF
